{
  "contractName": "Todo",
  "abi": [
    {
      "inputs": [],
      "payable": false,
      "stateMutability": "nonpayable",
      "type": "constructor"
    },
    {
      "anonymous": false,
      "inputs": [
        {
          "indexed": false,
          "internalType": "uint256",
          "name": "",
          "type": "uint256"
        },
        {
          "indexed": false,
          "internalType": "uint256",
          "name": "",
          "type": "uint256"
        },
        {
          "indexed": false,
          "internalType": "string",
          "name": "",
          "type": "string"
        },
        {
          "indexed": false,
          "internalType": "string",
          "name": "",
          "type": "string"
        },
        {
          "indexed": false,
          "internalType": "uint256",
          "name": "",
          "type": "uint256"
        },
        {
          "indexed": false,
          "internalType": "bool",
          "name": "",
          "type": "bool"
        }
      ],
      "name": "TaskCreated",
      "type": "event"
    },
    {
      "anonymous": false,
      "inputs": [
        {
          "indexed": false,
          "internalType": "uint256",
          "name": "",
          "type": "uint256"
        },
        {
          "indexed": false,
          "internalType": "uint256",
          "name": "",
          "type": "uint256"
        },
        {
          "indexed": false,
          "internalType": "bool",
          "name": "",
          "type": "bool"
        }
      ],
      "name": "ToggleTaskStatus",
      "type": "event"
    },
    {
      "constant": false,
      "inputs": [
        {
          "internalType": "string",
          "name": "_description",
          "type": "string"
        },
        {
          "internalType": "string",
          "name": "_author",
          "type": "string"
        }
      ],
      "name": "createTask",
      "outputs": [],
      "payable": false,
      "stateMutability": "nonpayable",
      "type": "function"
    },
    {
      "constant": true,
      "inputs": [
        {
          "internalType": "uint256",
          "name": "_id",
          "type": "uint256"
        }
      ],
      "name": "getTask",
      "outputs": [
        {
          "internalType": "uint256",
          "name": "",
          "type": "uint256"
        },
        {
          "internalType": "uint256",
          "name": "",
          "type": "uint256"
        },
        {
          "internalType": "string",
          "name": "",
          "type": "string"
        },
        {
          "internalType": "string",
          "name": "",
          "type": "string"
        },
        {
          "internalType": "uint256",
          "name": "",
          "type": "uint256"
        },
        {
          "internalType": "bool",
          "name": "",
          "type": "bool"
        }
      ],
      "payable": false,
      "stateMutability": "view",
      "type": "function"
    },
    {
      "constant": true,
      "inputs": [],
      "name": "getTaskIds",
      "outputs": [
        {
          "internalType": "uint256[]",
          "name": "",
          "type": "uint256[]"
        }
      ],
      "payable": false,
      "stateMutability": "view",
      "type": "function"
    },
    {
      "constant": false,
      "inputs": [
        {
          "internalType": "uint256",
          "name": "_id",
          "type": "uint256"
        }
      ],
      "name": "toggleTask",
      "outputs": [],
      "payable": false,
      "stateMutability": "nonpayable",
      "type": "function"
    }
  ],
  "bytecode": "0x608060405234801561001057600080fd5b506000600181905550610bf3806100286000396000f3fe608060405234801561001057600080fd5b506004361061004c5760003560e01c80631d65e77e14610051578063292a458514610184578063613137a4146102d6578063bcd1480514610304575b600080fd5b61007d6004803603602081101561006757600080fd5b8101908080359060200190929190505050610363565b60405180878152602001868152602001806020018060200185815260200184151515158152602001838103835287818151815260200191508051906020019080838360005b838110156100dd5780820151818401526020810190506100c2565b50505050905090810190601f16801561010a5780820380516001836020036101000a031916815260200191505b50838103825286818151815260200191508051906020019080838360005b83811015610143578082015181840152602081019050610128565b50505050905090810190601f1680156101705780820380516001836020036101000a031916815260200191505b509850505050505050505060405180910390f35b6102d46004803603604081101561019a57600080fd5b81019080803590602001906401000000008111156101b757600080fd5b8201836020820111156101c957600080fd5b803590602001918460018302840111640100000000831117156101eb57600080fd5b91908080601f016020809104026020016040519081016040528093929190818152602001838380828437600081840152601f19601f8201169050808301925050505050505091929192908035906020019064010000000081111561024e57600080fd5b82018360208201111561026057600080fd5b8035906020019184600183028401116401000000008311171561028257600080fd5b91908080601f016020809104026020016040519081016040528093929190818152602001838380828437600081840152601f19601f8201169050808301925050505050505091929192905050506105b1565b005b610302600480360360208110156102ec57600080fd5b81019080803590602001909291905050506107e8565b005b61030c610a89565b6040518080602001828103825283818151815260200191508051906020019060200280838360005b8381101561034f578082015181840152602081019050610334565b505050509050019250505060405180910390f35b6000806060806000808660008114156103e4576040517f08c379a00000000000000000000000000000000000000000000000000000000081526004018080602001828103825260128152602001807f7461736b20696420697320696e76616c6964000000000000000000000000000081525060200191505060405180910390fd5b87600260008a815260200190815260200160002060010154600260008b8152602001908152602001600020600201600260008c8152602001908152602001600020600301600260008d815260200190815260200160002060040154600260008e815260200190815260200160002060050160009054906101000a900460ff16838054600181600116156101000203166002900480601f0160208091040260200160405190810160405280929190818152602001828054600181600116156101000203166002900480156104f85780601f106104cd576101008083540402835291602001916104f8565b820191906000526020600020905b8154815290600101906020018083116104db57829003601f168201915b50505050509350828054600181600116156101000203166002900480601f0160208091040260200160405190810160405280929190818152602001828054600181600116156101000203166002900480156105945780601f1061056957610100808354040283529160200191610594565b820191906000526020600020905b81548152906001019060200180831161057757829003601f168201915b505050505092509650965096509650965096505091939550919395565b6001600081548092919060010191905055506040518060c00160405280600154815260200142815260200183815260200182815260200160008152602001600015158152506002600060015481526020019081526020016000206000820151816000015560208201518160010155604082015181600201908051906020019061063b929190610ae1565b506060820151816003019080519060200190610658929190610ae1565b506080820151816004015560a08201518160050160006101000a81548160ff021916908315150217905550905050600060015490806001815401808255809150509060018203906000526020600020016000909192909190915055507fd88161da87370d2fefc5a612fb2835225cb9e2c29b666130a17306dddea2753360015442848460008060405180878152602001868152602001806020018060200185815260200184151515158152602001838103835287818151815260200191508051906020019080838360005b8381101561073e578082015181840152602081019050610723565b50505050905090810190601f16801561076b5780820380516001836020036101000a031916815260200191505b50838103825286818151815260200191508051906020019080838360005b838110156107a4578082015181840152602081019050610789565b50505050905090810190601f1680156107d15780820380516001836020036101000a031916815260200191505b509850505050505050505060405180910390a15050565b806000811415610860576040517f08c379a00000000000000000000000000000000000000000000000000000000081526004018080602001828103825260128152602001807f7461736b20696420697320696e76616c6964000000000000000000000000000081525060200191505060405180910390fd5b610868610b61565b600260008481526020019081526020016000206040518060c00160405290816000820154815260200160018201548152602001600282018054600181600116156101000203166002900480601f0160208091040260200160405190810160405280929190818152602001828054600181600116156101000203166002900480156109335780601f1061090857610100808354040283529160200191610933565b820191906000526020600020905b81548152906001019060200180831161091657829003601f168201915b50505050508152602001600382018054600181600116156101000203166002900480601f0160208091040260200160405190810160405280929190818152602001828054600181600116156101000203166002900480156109d55780601f106109aa576101008083540402835291602001916109d5565b820191906000526020600020905b8154815290600101906020018083116109b857829003601f168201915b50505050508152602001600482015481526020016005820160009054906101000a900460ff161515151581525050905060018160a00190151590811515815250508060a00151610a26576000610a28565b425b8160800181815250507f7c3361ef03453fbc1882af940ac03263fb8735a37041c3996a2cd99c81bed73f8382608001518360a001516040518084815260200183815260200182151515158152602001935050505060405180910390a1505050565b60606000805480602002602001604051908101604052809291908181526020018280548015610ad757602002820191906000526020600020905b815481526020019060010190808311610ac3575b5050505050905090565b828054600181600116156101000203166002900490600052602060002090601f016020900481019282601f10610b2257805160ff1916838001178555610b50565b82800160010185558215610b50579182015b82811115610b4f578251825591602001919060010190610b34565b5b509050610b5d9190610b99565b5090565b6040518060c0016040528060008152602001600081526020016060815260200160608152602001600081526020016000151581525090565b610bbb91905b80821115610bb7576000816000905550600101610b9f565b5090565b9056fea265627a7a7231582079a1592217eb34d774bda715709b48b37726e618a4c58b70a2e31e121c6e1a5964736f6c63430005100032",
  "source": "//SPDX-License-Identifier: MIT\npragma solidity >= 0.5.0 < 0.7.0;\n\ncontract Todo {\n  constructor() public {\n    lastTaskId = 0;\n  }\n\n  struct Task{\n    uint id;\n    uint date;\n    string description;\n    string author;\n    uint dateCompleted;\n    bool isDone;\n  }\n\n  uint[] taskIds;\n  uint lastTaskId;\n  mapping(uint => Task) tasks;\n\n  // events\n  event TaskCreated(uint, uint, string, string, uint, bool);\n  event ToggleTaskStatus(uint, uint, bool);\n\n  function createTask(string memory _description, string memory _author) public {\n    lastTaskId++; \n    tasks[lastTaskId] = Task(lastTaskId, now, _description, _author, 0, false);\n    taskIds.push(lastTaskId);\n    emit TaskCreated(lastTaskId, now, _description, _author, 0, false);\n  }\n\n  function getTask(uint _id) checkIfTaskIdExists(_id) public view returns (\n    uint,\n    uint,\n    string memory,\n    string memory,\n    uint,\n    bool\n  ) {\n    return (_id, tasks[_id].date, tasks[_id].description, tasks[_id].author, tasks[_id].dateCompleted, tasks[_id].isDone);\n  } \n\n  function getTaskIds() public view returns(uint[] memory) {\n    return taskIds;\n  }\n\n  function toggleTask(uint _id) checkIfTaskIdExists(_id) public {\n    Task memory task = tasks[_id];\n    task.isDone = true;\n    task.dateCompleted = task.isDone ? now : 0;\n    emit ToggleTaskStatus(_id, task.dateCompleted, task.isDone);\n  }\n\n  modifier checkIfTaskIdExists(uint id) {\n    if(id == 0){\n      revert('task id is invalid');\n    }\n    _;\n  }\n}\n",
  "sourcePath": "/Users/muhammadrazakhan/todo-smart-contract/contracts/Todo.sol",
  "compiler": {
    "name": "solc",
    "version": "0.5.16+commit.9c3226ce.Emscripten.clang"
  },
  "schemaVersion": "3.2.4",
  "updatedAt": "2020-09-05T21:31:00.375Z",
  "networkType": "ethereum",
  "devdoc": {
    "methods": {}
  },
  "userdoc": {
    "methods": {}
  }
}